:1000000000180020C1000000D11F0000951F000053
:10001000951F0000951F0000951F0000951F000010
:10002000951F0000951F0000951F0000D11F0000C4
:10003000D11F0000951F00008933000059340000D3
:10004000D11F0000D11F0000D11F0000D11F0000F0
:10005000D11F0000D11F0000D11F0000D11F0000E0
:10006000D11F0000D11F0000D11F0000D11F0000D0
:10007000953400006D35000045360000D11F0000AA
:10008000D11F0000D11F0000D11F0000D11F0000B0
:10009000D11F0000D11F0000D11F0000D11F0000A0
:1000A00031240000D11F0000D11F0000D11F00002B
:1000B000D11F0000D11F0000D11F0000D11F000080
:1000C000F8B501F089FF0821474A484B1A60484AB1
:1000D000484B1A60484A494B1A60494B1A780A4201
:1000E00002D01A780A431A702A22464B46481A70E0
:1000F00000234649464C1A188A4203D2E558043375
:100100001560F8E70021434B434A934201D202C3F2
:10011000FBE70023414A424958589446985004331B
:10012000C02BF9D100210326FF2580248A083D4BEE
:100130009200D2180B002F003340DB009F40106864
:100140000131B84307002000984003003B4313608F
:100150002029EBD16246344B1A608A22334B1A7045
:10016000334B663A5A707C321A709E3A9979114232
:10017000FCD0102299791142FCD10C209A792C499B
:100180000240082AFAD1053A0A713D324A71203AF2
:1001900099791142FCD0402299791142FCD025492D
:1001A000254A11602021224A117014399A790A4097
:1001B0000C2AFBD1214A224B1A60224A224B1A6098
:1001C0000022224B1A60224B07321A60214A224B2E
:1001D0001A6062B602F000F803F09AFC01F002FF28
:1001E00001F0D0FEFEE7C046300004F03480044049
:1001F000823F0000388004400100000F3C80044032
:1002000002D0074000E0074040FEFF1F40010020F1
:100210006057000040010020F806002000F9FF1F91
:100220000000000000E400E008ED00E0005006409F
:10023000004006400000011044800440C000050555
:10024000048004407FBB000014E000E018E000E000
:1002500010E000E00000202020ED00E0FFFFFFFFA5
:10026000FFFFFFFFFFFFFFFFFFFFFFFFFFFFFFFF9E
:10027000FFFFFFFFFFFFFFFFFFFFFFFFFFFFFFFF8E
:10028000FFFFFFFFFFFFFFFFFFFFFFFFFFFFFFFF7E
:10029000FFFFFFFFFFFFFFFFFFFFFFFFFFFFFFFF6E
:1002A000FFFFFFFFFFFFFFFFFFFFFFFFFFFFFFFF5E
:1002B000FFFFFFFFFFFFFFFFFFFFFFFFFFFFFFFF4E
:1002C000FFFFFFFFFFFFFFFFFFFFFFFFFFFFFFFF3E
:1002D000FFFFFFFFFFFFFFFFFFFFFFFFFFFFFFFF2E
:1002E000FFFFFFFFFFFFFFFFFFFFFFFFFFFFFFFF1E
:1002F000FFFFFFFFFFFFFFFFFFFFFFFFFFFFFFFF0E
:10030000FFFFFFFFFFFFFFFFFFFFFFFFFFFFFFFFFD
:10031000FFFFFFFFFFFFFFFFFFFFFFFFFFFFFFFFED
:10032000FFFFFFFFFFFFFFFFFFFFFFFFFFFFFFFFDD
:10033000FFFFFFFFFFFFFFFFFFFFFFFFFFFFFFFFCD
:10034000FFFFFFFFFFFFFFFFFFFFFFFFFFFFFFFFBD
:10035000FFFFFFFFFFFFFFFFFFFFFFFFFFFFFFFFAD
:10036000FFFFFFFFFFFFFFFFFFFFFFFFFFFFFFFF9D
:10037000FFFFFFFFFFFFFFFFFFFFFFFFFFFFFFFF8D
:10038000FFFFFFFFFFFFFFFFFFFFFFFFFFFFFFFF7D
:10039000FFFFFFFFFFFFFFFFFFFFFFFFFFFFFFFF6D
:1003A000FFFFFFFFFFFFFFFFFFFFFFFFFFFFFFFF5D
:1003B000FFFFFFFFFFFFFFFFFFFFFFFFFFFFFFFF4D
:1003C000FFFFFFFFFFFFFFFFFFFFFFFFFFFFFFFF3D
:1003D000FFFFFFFFFFFFFFFFFFFFFFFFFFFFFFFF2D
:1003E000FFFFFFFFFFFFFFFFFFFFFFFFFFFFFFFF1D
:1003F000FFFFFFFFFFFFFFFFFFFFFFFFFFFFFFFF0D
:10040000FFFFFFFFFFFFFFFFFFFFFFFFDEF9FFFF23
:1004100010B5064C2378002B07D1054B002B02D0DA
:10042000044800E000BF0123237010BD40010020FC
:100430000000000060570000084B10B5002B03D0EF
:100440000749084800E000BF07480368002B00D1B7
:1004500010BD064B002BFBD09847F9E700000000C9
:10046000440100206057000040010020000000000F
:10047000F0B5284F85B00300039000920D001400E2
:1004800038000A00244901F074FC039B3E000A2B4B
:1004900021D8402D0CD1214B3F2C03D901222049DA
:1004A0001A7002E000221F491A70300001F061FC4E
:1004B000FE232006DB051840FE231B4ADB03024314
:1004C000280403401A43100002F06EFB23002A00A8
:1004D0001649300019E0164D2B68002B17D0154A2D
:1004E000F02012680001D318FE22DBB2013B1B0290
:1004F000D20503402006104003430F48184302F082
:1005000053FB230038002A680C4901F032FC05B087
:10051000F0BDC0466CFEFF1F7C4900005C0100205E
:10052000A4490000B94900000BB00000CF49000009
:100530005003002044FEFF1F0BB04A00F6490000A4
:10054000F0B585B001930AAB1B78002502930BAB85
:100550001B780400039345230370443BC3710300DD
:100560003033857105724572C560056145618561ED
:10057000C561056245628562C5620F001D70160087
:10058000456305220A49383003F01AFB7F23636470
:100590006B461B792000E3706B461B7A2564237140
:1005A0006B461B7B6770A670637105B0F0BDC046DB
:1005B00044490000044B1A680132042A00DD00227D
:1005C0001A6018687047C04640FEFF1F034B1A6848
:1005D000013A00D504221A601868704740FEFF1FD8
:1005E000054B1A680132022A00DD00221A601B68DE
:1005F000024AD05C7047C04698030020F1500000CA
:10060000044B1A68013A00D502221A601B68024A9C
:10061000D05C704798030020F150000003000800F0
:10062000433810B50A0019700D281DD803F0C2F820
:10063000161C071C1C1C1C1C1C111C0C1C1301224E
:10064000DA7100229A710DE001229A71DA710022AA
:1006500008E0012200E000229A7102E001229A7172
:100660000022DA711A7203E00249034801F081FBAB
:1006700010BDC0461D4A00006CFEFF1FF7B5F024F8
:10068000274ED5B233682401581C2818C0B201384F
:10069000244B0002204018431700019102F084FA15
:1006A0003368BF00581C2818C0B201381E4B000226
:1006B0002040184302F078FA3368581C2818C0B25A
:1006C00001381A4B00022040184302F06DFA3368DB
:1006D000581C2818C0B20138154B0002204018439E
:1006E00002F062FA3368581C2818C0B20138114B66
:1006F00000022040184302F057FA306801302D18EC
:10070000E8B20138000204400B48204302F04CFAE2
:100710000022019BFB585A619A611A61F7BDC046DD
:1007200044FEFF1F0EE000400DD000000BB00100A2
:100730000BB049000BB04A000BB00200036C013350
:10074000042B00DD00230364036CC01838300078EC
:100750007047036C013B00D504230364036CC0188D
:10076000383000787047FFFFF0B5040085B000799D
:100770000F0001F0ABFC0200511E8A417F2552425E
:100780001540626C030095422BD0002D06D0627A92
:10079000002A01D0002200E001226272617A6278B0
:1007A00002912179009501910F48104901F0E1FA79
:1007B00038006178667A48300139002E0AD001F09D
:1007C00061F8E368E36123692362A369A362636953
:1007D000636205E001F063F8E6612662A662666284
:1007E0006564607A05B0F0BD6CFEFF1F4E4A0000E4
:1007F000F0B51600027885B01300433BDBB205006C
:1008000003910D2B05D8012199400B0043490B4260
:1008100003D14349434801F0ACFA434B1C78002C08
:100820000FD1F3235B009E4272DC7F34082E6FDD14
:100830003000EB38FF3860433C4903F059F80400BE
:1008400066E030007F24EE38FF386043384903F01B
:100850004FF8A04202DCC443E4170440E979314F69
:10086000AB786A7800291ED0297A002905D0641057
:100870004034019400962F4906E00399002900D0E6
:1008800034002D4901940096380001F072FA2B4B88
:1008900018686B78C018F023C0B201381B01000241
:1008A0001840274B10E0019400962649380001F0CB
:1008B00060FA224B18686B78C018F023C0B2013878
:1008C0001B0100021840204B1843FE232206DB05C3
:1008D0001340184302F068F92B69EC60002B1AD022
:1008E0002B7A002B17D12B616A781849380001F058
:1008F00040FA124B18686B78C018F023C0B2013868
:100900001B0100021840124B184302F04DF902E09F
:10091000EB68A342A2D105B0F0BDC046052A000095
:10092000934A00006CFEFF1F8001002017FEFFFFAE
:1009300014FEFFFFBA4A0000F84A000044FEFF1F01
:100940000BB04A002B4B00000BB001005D4B0000C8
:100950000DD000003A4B73B505000E0000249942FB
:100960000EDD384B7F3499420ADC374BC818FB2127
:10097000C001490002F0BCFFC3430400DB171C4068
:100980002B699C425BD0297AAB786A782F48002982
:1009900019D03F210C1BE143C9170C40019400966C
:1009A0002B4901F0E6F92B4B220618686B78C0182A
:1009B000F023C0B201381B0100021840264B184337
:1009C000FE23DB0513E001940096244901F0D1F9E0
:1009D000204B220418686B78C018F023C0B201388D
:1009E0001B01000218401E4B1843FE23DB0313407B
:1009F000184302F0D9F8EB682C61002B1FD02B7A3A
:100A0000002B1CD16A781749104801F0B2F9F02088
:100A1000104A6B781268E9790001D318002906D0D2
:100A2000DAB2013A1202130003400B4804E0DBB2D1
:100A3000013B1B0203400C48184302F0B5F873BD9C
:100A400003020000FA030000F6FDFFFF6CFEFF1F2B
:100A5000824B000044FEFF1F0BB04A00BE4B00005B
:100A60000DD00000F64B00000BB0010073B5867985
:100A70000500002E11D10A2921DDF52334005B0089
:100A800099421DDC3B4BCC1863031B1BDC17E405B0
:100A9000E40DE3185B125C4212E0EC23FF33002408
:100AA00099420DDC7F340A290ADD324BCB185C43B6
:100AB000E317DB05DB0D1C196412644200E02E4CC9
:100AC0006B699C4254D0EB786A782C48002E20D178
:100AD000009101942A4901F04CF9F020294B0001C2
:100AE0001A686B78FE21D318DBB2013B1B0203406E
:100AF0002548C903184380239B01E21813041940B9
:100B00000300FE205204C00502400B4313431800AB
:100B10002BE0EE7901940091002E12D11B4901F0D7
:100B200028F9184B220418686B78C018F023C0B25B
:100B300001381B0100021840154B1843FE23DB034C
:100B400011E0144901F015F90E4B220618686B7874
:100B5000C018F023C0B201381B01000218400E4B30
:100B60001843FE23DB051340184302F01DF86C61A7
:100B700073BDC046FFFDFFFFFF1F00006CFEFF1F9F
:100B8000194C000044FEFF1F0EE000004F4C000017
:100B90000DD000007A4C00000BB04900F7B5877902
:100BA00005000E00002F0ED1FE239B0099421BDC96
:100BB000384B3C00994218DD374BCB18F7215803CE
:100BC000181A49000CE0354B002499420DDDE8333A
:100BD000FF337F34994208DC314BC8183149C001DA
:100BE00002F086FE040000E02F4CAB699C4250D01E
:100BF000EB786A782D48002F20D12D49019400967A
:100C000001F0B7F8F0202B4B00011A686B78FE2139
:100C1000D318DBB2013B1B0203402748C90318432A
:100C200080239B01E218130419400300FE205204A4
:100C3000C00502400B431343180027E0E9790194F3
:100C4000009600290ED11D4901F093F8194B186840
:100C50006B78C018F023C0B201381B0100021840A5
:100C6000174B0DE0174901F084F8124B18686B78A8
:100C7000C018F023C0B201381B0100021840124B0B
:100C80001843FE232206DB051340184301F08CFFB6
:100C9000AC61F7BD12020000EEFDFFFF1102000083
:100CA000FFFDFFFFFF01000000E0FFFF6CFEFF1FE4
:100CB000B34C000044FEFF1F0EE00000E24C0000B9
:100CC0000BB00200184D00000BB00100F8B5040095
:100CD0000D00FFF749FD071E0AD0154B1B78002BAE
:100CE00025D02B00E26901212000FFF781FD1EE0E5
:100CF000A07801F0FFF80F4E0100B04206DC0200C0
:100D00002B0039002000FFF773FD03E02A002000CC
:100D1000FFF720FEE07801F0EDF82A000100200046
:100D2000B14202DCFFF7A2FE01E0FFF737FFF8BD9A
:100D3000800100200102000070B5F02500242D0183
:100D4000601E084B00022840184301F02DFF0022CE
:100D5000054BE2540134102CF2D10449044801F04F
:100D600008F870BD0BB07B005D010020524D000003
:100D70006CFEFF1FF0B5514B85B01A680600501C81
:100D8000019118600A2102F0AFFD002900D093E024
:100D900034004834200000F08FFD494B05001B68EB
:100DA000984200D188E0112800D97EE002F002FDCF
:100DB000090909092427383D404040405F277664EF
:100DC0008272019B8700DF193868437A002B73D148
:100DD000FFF7B4FC2A0001000290200000F0ECFCB8
:100DE00002993868FFF71AFC2A0001993000FFF7D2
:100DF00045FC2A0033495AE0FFF7F2FB39E00121B4
:100E0000314A13784B4013706C310522002B00D10E
:100E10007021200000F0D0FC3000FFF78DFF49E08A
:100E20002A492B4800F0A5FF44E0FFF7C3FB37E059
:100E30000700019A083FBB00D31818680293437A51
:100E4000002B39D1FFF785FC3A0001000390200008
:100E500000F0B2FC029B03991868FFF7DFFB3A0031
:100E600001993000FFF70AFC3A001A491FE0FFF72A
:100E7000C7FB01000422CCE70121174A13784B403D
:100E8000137049310622002B00D12021200000F0F0
:100E900093FC0FE011490E4800F06BFFFFF796FB43
:100EA00001003031C9B20722B3E702000C490848FB
:100EB00000F05FFF024B1D6005B0F0BD9C010020FB
:100EC000E0020020684D000048FEFF1F904D00002A
:100ED0006CFEFF1FB74D000080010020E34D0000B5
:100EE000F74D00001FB50200174B243A134004D5FC
:100EF0000421013B49420B4301331448591C016052
:100F00000021D4170191033121408A181049921011
:100F100009688900CB180F499B005B58D4180E4B09
:100F200019680C234B43E318029301A9002B00DD41
:100F300002A97F2303930B687E2B00DD03A90B68B6
:100F40008260436004B010BD03000080A001002057
:100F5000980300204C49000040FEFF1F1FB50C21E4
:100F6000040002F0ABFD2F2C03DD00233B2C02DC40
:100F70000FE03B2C03DD0123472C03DC09E00423B5
:100F8000472C00DD0223532C03DD04235F2C00DCFF
:100F9000013B11485A1C0260002201920F4A12685C
:100FA0009200D3180E4A9B009B58CC180D4B1A6820
:100FB0000C235343E318029301AA002B00DD02AA7D
:100FC0007F23039313687E2B00DD03AA13688160DF
:100FD000436004B010BDC04670010020980300209B
:100FE0004C49000040FEFF1F73B503000A0009488A
:100FF0000F2903D9084900F0BCFE0AE00121914005
:10100000064C9D002E59314329510091044900F0AE
:10101000B0FE73BD6CFEFF1F194E0000540300208C
:10102000604F00000D4A13B581008A580300002A62
:1010300009D00F2401210800A040024205D1013C43
:10104000002CF8D101E001246442009204492200FE
:10105000044800F08EFE200016BDC0465403002058
:101060003C4E00006CFEFF1FF0B5614E87B004924D
:1010700000920B00020005000C0030005D4900F0FA
:1010800078FE37000B2D08D15B4B5C491A685C4B2E
:1010900030001A6000F06DFEA8E02000102D0AD18B
:1010A000FFF720FF05682000FFF71CFF46682000BF
:1010B000FFF718FF09E0FFF751FF05682000FFF771
:1010C0004DFF46682000FFF749FF83684D490393B1
:1010D000049B00960193039A2B00380000F049FE10
:1010E000494B1B78002B0BD0484BAA00D358002B40
:1010F00036D02800FFF796FF039B834230DC20E0C8
:10110000049BF0201A06FE23DB051A40FE2340490B
:10111000DB03114332041A403E4B00011B680A43B3
:101120005B19DBB2013B1B021840104301F03CFD90
:10113000049B380001932B00039A3749009600F076
:1011400018FE2D4B039928001D60FFF74DFF2F4B14
:10115000AA00D358002B49D00122304B5A5545E004
:101160002C4CEFB22368F818F023C0B201381B01F1
:10117000000218402A4B184301F016FD049B180684
:10118000FE23DB051840274B0590585DFE23000425
:10119000DB030340059A24481043F02218432368D8
:1011A0001201FB18DBB2013B1B021340184301F094
:1011B000FBFC23683004FF18F023FFB2013F1B0142
:1011C0003F021F40FE23DB03059A1840104B1343D8
:1011D0001843384301F0E8FC124B039A5E55049B18
:1011E0000096019311492B000148A8E707B0F0BD14
:1011F0006CFEFF1F6A4E0000880100208C4E00002C
:1012000050030020CD4E000048FEFF1F5403002075
:101210000990000044FEFF1FFA4E00005D0100200F
:101220000BB07B00CC020020088000002C4F000097
:1012300073B503000A000A480F2903D9094900F0D1
:1012400098FD0CE001248C4007499D004C40074963
:101250006E5834406C500094054900F08AFD73BD0F
:101260006CFEFF1F194E0000FFFF0000540300201A
:101270005E4F0000F0B50E00804F8BB003920092DD
:101280000B00020004007E49380000F072FD3000BF
:10129000102C0AD1FFF726FE04683000FFF722FE6B
:1012A00045683000FFF71EFE09E0FFF757FE0468AF
:1012B0003000FFF753FE45683000FFF74FFE002374
:1012C0001A0086686F49595C013348424841121838
:1012D000112BF7D16C4B112A04D01A6869498A5C2A
:1012E000002A01D100221A60039B0095019332006D
:1012F00023006649380000F03CFD654B1B78002B4D
:1013000025D1039B320001930095230061493800E9
:1013100000F02FFD31002000FFF78AFF039BF02033
:101320001A06FE23DB051A40FE235B49DB0311434B
:101330002A041A40594B00011B680A431B19DBB2EF
:10134000013B1B021840104301F02EFC76E0200008
:10135000FFF768FE86426DD1039B3200019350492E
:1013600023003800009500F004FDE3B20493039BD2
:101370004A4F1806FE233A68DB051840F021E3B215
:1013800005909818FE23C0B20138000209010140FF
:10139000DB0328041840404A059B1A43030013430B
:1013A0001943080001F000FC31002000FFF740FF66
:1013B0002000FFF737FE049000283BDB0023079353
:1013C000384B1A68631ED943C9170B409200D318D3
:1013D000354A9B009B58C118344B1A680C23534361
:1013E000CB18089307AA002B00DD08AA7F230993D6
:1013F00013687E2B00DD09AA3868E3B21818F023C1
:10140000C0B201381B01000215681840059A284B2C
:1014100013431843FE232A04DB031340184301F04F
:10142000C3FB039B00950193049A230021491348B1
:1014300000F09FFC31002000FFF7FAFE039B320012
:101440000193009523001C490C4800F092FC1B4BB3
:10145000A200D358002B0ED1F0200A4A00011355E8
:101460000E4B1B681C19E4B2013C240204401448D2
:10147000204301F099FB0BB0F0BDC0466CFEFF1F8E
:10148000824F00005D01002088010020A54F000070
:1014900048FEFF1FCF4F00000880000044FEFF1FE2
:1014A000FD4F0000980300204C49000040FEFF1F44
:1014B000099000002B5000005D50000054030020F4
:1014C0000BB07B000D4A0E4B10B51A600D4A0E4B47
:1014D00002211A600D4A0E4B01201A6000F008FE2E
:1014E0000221080000F004FE0221032000F000FEAB
:1014F0000221042000F0FCFD10BDC0466910000070
:10150000EC04002075120000E404002071040000C7
:10151000E8040020F0B50127754E87B03568754C9A
:101520003D401AD1300000F082FD002815D02B007C
:101530002A002900019500952000FFF701F80A23F1
:1015400020000093483002970197013B08226A4926
:1015500000F004F9300000F06EFD0127674E356899
:101560003D400FD1300000F062FD00280AD0019507
:1015700000971623172239006148FEF7E1FF30007B
:1015800000F059FD01255F4E33681D4010D1300039
:1015900000F04DFD00280BD004230195009311228B
:1015A0000C3302215848FEF7CBFF300000F043FD1A
:1015B0000125564E33681D4010D1300000F037FD34
:1015C00000280BD00223019500931522123303212A
:1015D0004F48FEF7B5FF300000F02DFD01254D4EC0
:1015E00033681D4010D1300000F021FD00280BD0E1
:1015F00003230195009313220F3304214648FEF77D
:101600009FFF300000F017FD0425444F00203B6889
:1016100001333B6001F028FB414E20003100FFF711
:10162000A9FB0596059AAB00103B2100D058FFF7A7
:101630004DFB3221386802F057F9002935D1394B7A
:10164000394E1B780493002B09D03378002B11D12D
:1016500020003649483000F0CDF8012309E0337806
:10166000002B07D020003249483000F0C3F86B4609
:101670001B7C33702F4B1A68002A09D02E4B196837
:101680008A4217D104E020002C49483000F0B2F81B
:1016900020002B4AEB1ED35C48302900002B02D0DF
:1016A00000F0F0F801E000F0FAF80135082DB9D1AA
:1016B00007B0F0BD1A60042A04D92249224800F07C
:1016C00058FBE5E7100002F06BF8DE03070B0F0094
:1016D00020001E494830D9E720001D494830D5E791
:1016E00020001C494830D1E720001B494830CDE795
:1016F000E4020020E80200208B500000900100204E
:10170000AC01002094010020F4010020840100209D
:101710003C02002098010020840200207C0100206F
:101720004CFEFF1F5C0100204C0300209450000081
:101730009D500000500300208C010020A6500000A6
:101740005D010020D35000006CFEFF1FAF50000071
:10175000B8500000C1500000CA50000073B504002A
:1017600008AE36780D0007A811001A0006AB1B78EA
:101770000078019626000090200000F05BF90C4BE9
:10178000093623602900300002F0FEFA002520000F
:10179000290025720922123002F030FA054B2A0086
:1017A000009331002B00200000F0A5F9200076BD49
:1017B000005100003C51000073B50400072A12DC00
:1017C0000500821851720935037A2A000649074834
:1017D00000F0CFFA0649236800919E69227A00231F
:1017E00029002000B04773BDA45100006CFEFF1F0C
:1017F0003C510000F0B5040085B00E1E00D11D4E16
:1018000000250127300002F0C7FA082800DD082073
:1018100085421CDA735D1800039302F09FF90028DB
:1018200013D1039A237A2D2A09D11900263A521B83
:101830001141394209D0390091404B4004E0072260
:101840003900521B91400B4323720135DAE7250022
:101850000935237A2A000849084800F08AFA08491D
:10186000236800919E69227A002329002000B04756
:1018700005B0F0BD8E520000975200006CFEFF1FB5
:101880003C51000010B54418A37C002B06D103681E
:10189000CAB25B6B012198470123A37410BD036892
:1018A00070B5CAB205000C005B6B0021984700239D
:1018B0002C19A37470BDFFFF0368F7B59B6B9847A5
:1018C0003B4B3C4D19680200286001933A4C88421A
:1018D00066D03A4E3A4F00280BD123681021062BD0
:1018E00004D131784B1E99411123591A00233370CA
:1018F0004CE0412836D013D808282FD006D802282B
:1019000028D0042828D0012837D13DE005212028FF
:1019100038D00621402835D010282ED1042131E0BE
:10192000502825D007D844281ED048281ED0422849
:1019300023D109211DE0802812D004D80D210123D4
:10194000602823D019E0812815D00E210123C0285A
:101950001CD012E0012115E0022113E0032111E067
:1019600007210FE0082104E00A2102E00B2100E03A
:101970000C2101230AE00F2104E01249380000F095
:10198000F8F92168002301E000210B002160002B01
:1019900001D00122327032780B49380000F0E9F9A9
:1019A0002B6820680093009A019B1A60FEBDC04618
:1019B00060FEFF1FA00300205CFEFF1F9C030020B1
:1019C0006CFEFF1FBB520000EF52000010B50C0070
:1019D000036852000132D1B29B6A2200984710BDC1
:1019E00010B504684900A46AC9B2002B01D0802355
:1019F0005B421A43D2B2A04710BD70B50400002567
:101A0000C079002100F042FB23684221DB6A2000FC
:101A100098472E00236820001B6B9847A84001358B
:101A20003043C6B2042DF5D1E079012100F02EFB40
:101A3000300070BD30B585B0040008A8007809AD4D
:101A40002D780190082002950090200000F03AF9CE
:101A50002000024B0833236005B030BD2053000046
:101A600070B515000F220A4004998A5C01680C6A5F
:101A70002900A04770BDFFFF036870B51B690822ED
:101A8000074904000825984723799D4207DA23680F
:101A9000E9B2DB680022200098470135F4E770BD09
:101AA000A053000010B513000268146A0022A0477A
:101AB00010BDF7B50500170000240191BC4209D004
:101AC000019BE1B21A5D2B6828001E6A0023B04713
:101AD0000134F3E7F7BD70B5050000242B799C4273
:101AE00008DA2B686100C9B29B6A00222800984777
:101AF0000134F3E770BDF7B505001E000024009126
:101B000001922B799A1B944219DA009A125D002AED
:101B100015D001211B1B013B99400B00019928683E
:101B20000B40591E8B410899076A8A18203A3119CF
:101B3000DBB21278C9B22800B8470134E1E7F7BD3B
:101B400070B504000D00C079002100F09FFA2368F1
:101B50002900DB6A20009847E079012100F096FA1D
:101B600070BD70B5040003680E005B6A4421150067
:101B70009847E079002100F089FAC02123683143B9
:101B80002000DB6A984723682900DB6A2000984719
:101B9000E079012100F07AFA70BDF8B505000E0079
:101BA00008240127A879002100F070FA3100687933
:101BB000394000F06BFA013CA8790121760800F069
:101BC00065FA002CEED1F8BD036810B55B6A04001D
:101BD000002901D1803901E078214942072A00DD3E
:101BE00007220A43D1B220009847E079002100F093
:101BF0004DFAA079002100F049FAA079012100F006
:101C000045FAE079012100F041FA10BDF0B5050078
:101C100000241F008B6885B00091039201932B79FB
:101C2000DB1B9C4220DA019B9C421DDA2B682100C1
:101C30001B6A00981E003B19DBB2029300F0AEF85D
:101C400001222B7902991B1B013B9A401300039A36
:101C5000013413405A1E93410A9ADBB210182038FF
:101C600002782800B047DAE705B0F0BDF8B5050006
:101C70000021407900F03CFA80276879012100F0CA
:101C800005FA082600247F42A879002100F0FEF919
:101C90006879640800F01AFA002801D03C43E4B2E5
:101CA000A8790121013E00F0F1F9002EECD168790C
:101CB000012100F01DFA6879310000F0E7F92000F9
:101CC000F8BDFFFFF7B5040016001D0008AB1A7839
:101CD00009AB1F780AAB1B7822710193204B0800D7
:101CE000083323606171A6710121E57100F000FAEB
:101CF0000121300000F0FCF90121280000F0F8F982
:101D00000121280000F0C2F90121300000F0BEF9E5
:101D100040212000FFF714FF8023002F00D07823FC
:101D200001995B42072900DD07211943C9B2200050
:101D3000FFF706FF0021280000F0A8F9C0212000CD
:101D4000FFF72BFF102600212000013EFFF725FFA3
:101D5000002EF8D12800012100F098F92000FEBDE6
:101D60006453000010B5140003685B6898472000B6
:101D700010BD0EB403B503AA02CA019202F048F8DE
:101D800002B008BC03B01847826800238A4203D916
:101D900002689A4200D0535C1800704710B5FFF7F4
:101DA000F3FF10BD8023F0B51D4A10681840FCD128
:101DB00072B61C4C2378002B30D01B4B1F681B4B7A
:101DC0001A681B4BBA181E681A4B92191D681A4BD9
:101DD00052191968194B52181B68194DD21892B232
:101DE0005208184B2A4392B21A60174B17491B68C6
:101DF000174A9C46174B1B6812680F6816496344C4
:101E00000E6816499B180968DB199B195A1893B27A
:101E10005B082B43124A9BB21360207062B6F0BD80
:101E200024B00340A503002038B003403CB0034079
:101E300040B0034044B0034048B003404CB00340BE
:101E40000080FFFF2CB0034058B0034064B0034053
:101E500060B003405CB0034068B003406CB0034026
:101E600030B003401B4B1C4A19781C4B082901D188
:101E7000002102E00A2903D12E311160132206E06D
:101E80000C2901D1283100E03C21116012221A6096
:101E9000134B1A78134B002A01D0002200E00122D4
:101EA0001A60114B1A78114B012A01D880220CE0DC
:101EB000042A01D8842208E0082A01D8852204E0F7
:101EC000102A01D8862200E087221A600122084BDE
:101ED0001A70704764FEFF1F08B003400CB0034047
:101EE000A703002020B0034065FEFF1F24B003407D
:101EF000A5030020F8B503000020272B33D81A4A89
:101F0000D45CFF2C2FD0194B1B78834201D0FFF7F4
:101F100049FF72B610274022154B144205D01A68AB
:101F2000BA431A603F231C4002E01A683A431A6021
:101F30000123104E104D34602B7062B672B68022B1
:101F40003368134208D00D4B186800232B7062B61B
:101F50000B4B1B78184106E02B78002BDBD062B6C8
:101F600001F096F9EAE7F8BDA8530000A5030020A8
:101F70000CB0034000B00340A603002010B00340A3
:101F8000A403002010B5FFF79DFAFFF7C3FA01F094
:101F90007FF9FAE770B580258026ED02F6000B4C3C
:101FA00023682B4201D000F043FA2368334201D06A
:101FB00001F070FA23681B0501D501F0D7FA2368F8
:101FC000DB04ECD501F03EFBE9E7C0463480044079
:101FD00010B5FFF7DFFFFFFF0022014B1A607047CB
:101FE000008104407047FFFF0A49030010B50868EC
:101FF000002B0DD06A46084CC3181219934206D321
:1020000001F080FD0C2303600120404200E00B60E2
:1020100010BDC04668FEFF1F00FEFFFF0020704796
:10202000012040427047012040427047FEE700789F
:10203000434258417047012303707047F8B50600CA
:102040000D00170000243900300001F04DFC0B009A
:102050003733DBB2092901D83031CBB230002B55F0
:10206000390001F0BBFB061E01D00134EBE72B1950
:1020700058702B005A1B944206DD1A78295D19709E
:102080002A550133013CF5E72800F8BD10B51A28A0
:1020900018D80C2358430C4A835810181C7D027A18
:1020A000224205D0002901D01A710BE01A7209E012
:1020B00043681A68002902D003210A4301E0022183
:1020C0008A431A6010BDC046D053000000231A286E
:1020D0000AD80C335843054A83581018007A1B7CE1
:1020E0000340581E8341DBB218007047D0530000F4
:1020F000F0B51A282FD80C2217004743164CE519C3
:102100006B682600012901D0042911D150433458AD
:102110003018257D027A20202A432275A2225200FF
:102120001A601A68042901D1024313E0824311E0C6
:1021300038592C7A027DA24302758022002908D0EA
:10214000022902D10422FF3204E00022032901D136
:10215000812252001A60F0BDD053000072B60C4BC1
:102160001A680C4B18680C4B1B6862B65B0104D5EF
:10217000322393429B415B42C018084B9A1A084B8A
:102180005A43FA239B005843920D10187047C046DB
:1021900018E000E0A803002004ED00E07FBB000091
:1021A0005555010070B50400FFF7D8FF0500002C5D
:1021B0000FD0FFF7D3FF074B401B984206D9013CD5
:1021C000002C06D0FA239B00ED18F2E701F060F82E
:1021D000EFE770BDE703000080221E4BD20510B56B
:1021E0001A608022002012061A601B4B1B491860DF
:1021F0001B4B1C4A1960282313601B4A1B4C13609D
:102200001B4A13601B4A13601B4A13601B4A13606E
:10221000092222601A4C20601A4C21601A4C23605B
:102220001A4C23601A4C22601A4C20601A48016034
:102230001A490B601A490B601A4B1A60FFF712FE1D
:102240001920FFF7AFFF00F0D3FB1420FF30FFF79A
:10225000A9FF10BD00E100E004800340FFBF0000C3
:10226000088003400C80034014800340008003403A
:102270001C800340248003402C80034034800340B2
:1022800004900340089003400C90034014900340D6
:102290000090034004A0034008A003400CA00340AA
:1022A00014A0034000A003400223F0B50A4A0B4EDD
:1022B0001478C8272343DB00F518686008480578C0
:1022C000002D00D1403F09040F43F75001235D402A
:1022D0005C4005701470F0BD1404002000F8FF1F6E
:1022E0008C040020431E10B50020032B0ED872B6BC
:1022F000074A99008858002807D044685B008C5032
:10230000044904885A5A121B5A5262B610BDC0467C
:1023100004040020A8060020431E0020032B09D837
:1023200072B6054A9B009B58002B02D001305B68B7
:10233000FAE762B67047C04658040020F8B572B696
:102340000123174A082594461E00164964465A1E62
:10235000A25C2A421AD05F017C589A00002C05D159
:10236000CB1908305860104BCB5109E03243D200F2
:102370005458002C0AD18B18083058600B4B8B50E6
:102380000B4A1378013B137062B608E00133052B4A
:10239000DCD162B60022064B1A7000F0BFFBF8BD1C
:1023A0003855000000F8FF1F88004000C8004000BA
:1023B00082040020421E10B5032A30D80223800078
:1023C0001843174BC0001B1872B6164CA05C0328AC
:1023D0000BD801F0EFF916040207052012E00833CC
:1023E00002200FE0083304200CE00F48920014583C
:1023F0000E4B002C01D1115001E0985841609950CA
:102400000CE00320A0540A0008325A60C8221807C2
:1024100000D4403A098809040A431A6062B610BD24
:1024200000F8FF1FC00300205804002068040020AB
:10243000F7B5B04B1C781D000423E4B21C421FD03A
:10244000AD4B1B78002B18D0AC4A1378DBB2002BB5
:1024500005D0013BDBB21370002B00D100BEA84AAF
:102460001378DBB2002B06D0013BDBB21370002BDC
:1024700001D100F0F1FE00F0DFFB04229D4B1A7049
:102480000822224000D149E29E4B9F4F1B78DBB2CD
:102490009C08E4001D093C19002D00D0CFE1226802
:1024A00063689006000F01380C2800D9C3E101F0E1
:1024B0008BF980018001C201C201C201C201C201C7
:1024C000C2019F01C201C201C2010D001A688F4EF4
:1024D0005B688F49736000230B6001218D48326077
:1024E00020608D4C92B221708C4C3B61BB6101909D
:1024F000A24218D8D020C000824200D3E1E081205F
:102500004000824200D1BDE006D8802A00D1A3E07D
:10251000822A00D1A5E0E9E0814B9A4200D1C0E0D7
:10252000FF33FF3313E090231B019A4213D009D8E5
:10253000803B9A4200D0D9E06F4B7A4C1B782370D5
:102540000B000FE1784B9A4200D12FE1774B9A4272
:1025500000D105E1CAE03C003D00B278664B203472
:102560001A70A03580222368134203D060680838AF
:1025700000F0D4FA0834AC42F4D1002425006C4BAE
:10258000E058002805D04368009300F0C7FA00988F
:10259000F7E7674B1851674BE050674BE05800284E
:1025A00005D04368009300F0B9FA0098F7E7624B52
:1025B000624A1851624BE0506B00D052614BE85CAC
:1025C0000238032807D801F0F5F8020402040022BB
:1025D00000E001225A5501350434042DCFD10023E7
:1025E0000124594D2B70594B5949621EE3188A5CDE
:1025F0009B001A7008231A4220D000F071FA630180
:10260000002805D0FA1808305060524AFA5003E00A
:10261000F8502B7801332B7000F062FA0122A300EE
:102620001343DB00002805D0FA1808305060019AE7
:10263000FA5003E0F8502B789B182B7002210023EE
:10264000A2001143C9007B5003210A438A40013490
:10265000BB50052CC7D184E0324C23706370022339
:1026600080E07F22B0880240042A3FD82D4C92009F
:1026700023706370384BD218022312781A4271D03B
:1026800021706FE07F23B2881A40042A2ED8738805
:10269000002B2BD10220304992005218117881432F
:1026A0000DE07F23B2881A40042A1FD87388002BBC
:1026B0001CD1022028499200521811780143117050
:1026C0004FE07288B188254B5C68002C0ED01888CA
:1026D000904209D15888884206D1120A032A01D1B2
:1026E00023783FE01B893DE00C33EDE70F221A4BC6
:1026F0001A705BE0802007408B0400201504002046
:10270000000500209020074000F8FF1F78040020FB
:10271000AC030020C80040008C04002081060000AB
:10272000020300008304002021090000210A0000A8
:1027300004040020B003002058040020A806002054
:1027400068040020C00300208204002030C801106B
:102750003855000088004000C02007403C5500006C
:1027600000231C00F5889D4200D91D002E00402D3D
:1027700000D9402620003100FFF796FDA419AD1BBB
:1027800003D12F00402E04D010E04027AF4200D9E3
:102790002F0020003900FFF787FDE419ED1B01D160
:1027A000402F03D1794B1C60794B1D800122794B5E
:1027B00040E0794A79491068884216D178495268D0
:1027C0008A4212D11A78A92A0FD15A78452A0CD1F7
:1027D0009A78C22A09D1DB786B2B06D10021714B84
:1027E000BD3A08001A70FFF75FFD6F4B236022E0CF
:1027F000664F3E68002E13D0654B1C882500402C88
:1028000000D9402529003000FFF74EFD641B604BC6
:10281000A4B21C80002C01D1402D00D174193C6061
:10282000A0225D4BD2001988914204D100225A7037
:102830009A785E4B1A700122564B1A706AE0082291
:102840006068013D0838EDB2134037D000F066F9FA
:102850005749A8004258574B002A1CD0566846508A
:102860001100585D0831616003280BD800F0A2FF09
:1028700002040608032104E0022102E0052100E031
:10288000042159550821C8230C4200D1403B12882D
:10289000120413433DE0585D032808D800F08AFF76
:1028A0003A3A0204002200E001225A5532E008229E
:1028B0001440621E944102345C552BE02268110CD6
:1028C0008AB2028000291ED03B4943804360AB009E
:1028D0005F583A4E002F01D1585001E0F15848603E
:1028E00037496D00F0506B5AD2186A5200F0F8F870
:1028F000002802D00830606005E0324A206013787A
:102900000133137006E008231C4201D12E4B00E076
:10291000254B236008222D4B1A708AE501200442C2
:102920001ED002231B49284C0B70294B294E1A70CC
:10293000294B1C609C60294C1A61DC600D249A6153
:102940005E60274B1C70FF23264C2370174C2B70A6
:102950002270254A13709F22244B1A70087013E0CE
:1029600063B2002B04DA0D221D4B1A7080232B70EA
:102970000222144204D01B490B78DBB20B702A7080
:1029800010231C4200D02B70F7BDC046AC030020C2
:1029900080040020942007407804002021090003CF
:1029A0000100040015040020C800400098200740E2
:1029B00058040020C003002004040020B0030020BD
:1029C000A8060020820400208800400080200740E4
:1029D00014040020C403002000F8FF1F1804002086
:1029E000C0200740882007408C20074084200740F3
:1029F00010B500F099FE002211001B4BD150981821
:102A000008324160882AF9D180201849C0020A683A
:102A100002430A601A0A1649D2B20A701A0C154902
:102A2000D2B20A70144A1B0E1370FF23134A0020FF
:102A30001370134A13491370134A137001220A705A
:102A40001249087012490A70124A116899430B0022
:102A500070210B43136080220F4B52041A60102226
:102A60000E4B1A7010BDC04600F8FF1F34800440A2
:102A70009C200740B0200740B4200740802007403A
:102A8000882007409420074010200740002107407D
:102A90008420074018E400E000E100E0082107403E
:102AA00010B500F0C7FA10BD10B500F095FA10BDD2
:102AB00010B500F0E1FA10BD10B500F0A9FB10BD93
:102AC00010B500F07FFB10BD10B50800110000F03C
:102AD000FDFA10BD10B5080000F06AFB10BD70478C
:102AE00070B572B60B4D2C68200000F0EDFF0F287A
:102AF00002DD62B600200CE080231B06C3409C432D
:102B00002C6062B648235843034B18180023036017
:102B1000436070BD7CFEFF1FC0F9FF1F10B50400AD
:102B20000E484821201A00F059FE0F2814D80C4BEB
:102B30001B78002B07D00B4B1B78002B03D02000F9
:102B4000FFF7FCFB08E072B680231B06C340064A71
:102B500011680B43136062B610BDC046C0F9FF1F79
:102B6000820400208B0400207CFEFF1F0B4B70B5FD
:102B70001B6805000A4C002B07D021883B2904D98B
:102B80000022084898470023238023883B2B03D842
:102B90005A1C2280034AD55470BDC046B40400209C
:102BA000B2060020B8060020F8B501231D4D1E4CCA
:102BB0002B7023680700002B1DD11C4E1C4B1B786B
:102BC000002B2DD00320FFF7A7FB052804D9013ED9
:102BD000184B002E06D108E0FFF782FF2060002886
:102BE000F5D008E01A78002A02D001221A7017E006
:102BF00000F04EFBE2E700260E4B21681E704B886A
:102C00005A1C9B00CB189F600F2A01D84A8005E010
:102C1000402303200B80FFF7CDFB266000232B70A1
:102C2000F8BDC046A4040020D0040020E14200000A
:102C30008B040020D404002070B5094B1D78002DB2
:102C40000CD1084C2168002908D04B88002B05D0F6
:102C50009B000B800320FFF7ADFB256070BDC046D5
:102C6000A4040020D0040020F7B5B44E01903368CE
:102C70003500002B13D1B24B1B78002B00D1A7E1FC
:102C80000420FFF72FFB3060002800D1A0E104886A
:102C9000002C04D1FFF742FF3460200099E128683E
:102CA00043889A08920082189468028804339342F9
:102CB00001D2438005E0FFF731FF0420FFF712FB4C
:102CC00028600F23250022099E491A401D40260A2C
:102CD00037000A702A001F40083A0137062A7FD8B9
:102CE000019A002A02D0974200D071E1220B1340D2
:102CF000082D07D1082B00D06AE18022924B1A7070
:102D0000924B21E0092D16D1092B00D060E1220E53
:102D10008D4B210C002A07D0902018708C4BD2B21A
:102D20001B68002B15D152E080201870874B1B6860
:102D3000002B0ED14BE00A2D0FD10A2B00D047E11A
:102D4000A022814B1A70834B1B68002B3FD0220EB0
:102D5000210CC9B2F8B2984739E00B2D07D10B2BE3
:102D600000D035E1B022784B1A707B4BECE70C2D8C
:102D700007D10C2B00D02BE1C022734B1A70774B7C
:102D800008E00D2D0ED10D2B00D021E1D0226E4B8D
:102D90001A70734B1B68002B19D0210CC9B2F8B202
:102DA000984714E00E2B00D012E1E022664B1A7017
:102DB0006C4B1B68002B0AD0FE226102480E920168
:102DC000610C1140684A01438918F8B29847674B73
:102DD000220C1F70664B240E1A70664B1C70AAE002
:102DE000AB1EF0B2012B05D9052D6DD1F02879D994
:102DF000F72877D0F1380E2800D9E9E000F0DAFCA6
:102E0000080A17E8E81EE823E82D3741E84B55008B
:102E1000594B0DE0594B1A68002A52D0FE2360022C
:102E2000410E9B01600C18400843904749E0544B09
:102E30001B68200CC0B2002B42D142E0514B1B68F2
:102E4000002B36D13DE0504B1B68002B31D14F4B4E
:102E5000F8201B68002B33D133E04D4B1B68002B4F
:102E600027D14A4BFA201B68002B29D129E0494B76
:102E70001B68002B1DD1454BFB201B68002B1FD16D
:102E80001FE0454B1B68002B13D1404BFC201B68F7
:102E9000002B15D115E0414B1B68002B09D13B4B92
:102EA000FE201B68002B0BD10BE03D4B1B68002B59
:102EB00001D0984705E0354B1B68002B01D0FF205F
:102EC0009847214B1E7082E7042D08D1F0B2FFF71E
:102ED0004DFE200CC0B2FFF749FE200E76E06B1FBE
:102EE000022B67D8F0B2FFF741FE052D08D0200C69
:102EF000C0B2FFF73BFE072D02D1200EFFF736FED2
:102F0000284B1B4A198811701A4A080A10700022AF
:102F10001A800D4BF0321A70234B1B68002B03D024
:102F2000EF3A2248984706E0214B01201B68002B0E
:102F30004FD01E48984701204BE0C046DC040020DB
:102F40008B040020B6060020B0060020E404002018
:102F5000EC040020B8040020E8040020A8040020AD
:102F6000BC040020AC04002000E0FFFFB7060020F6
:102F7000B4060020B5060020C4040020B0040020E0
:102F8000E0040020C8040020900400209C040020DD
:102F9000C0040020A0040020D804002098040020D1
:102FA00094040020B2060020B4040020B8060020DB
:102FB000CC0400200F2D0BD1F72800D91AE7F028F8
:102FC00003D0044B1B88002B02D0F0B2FFF7CEFDDC
:102FD0000020FEBDB206002070B5144B1B78002BFC
:102FE00020D0134D2B682E00002B03D10220FFF7B9
:102FF00079F928602868002814D04388C218147A08
:10300000002C0BD002880133934204D3FFF786FDD6
:103010000023336000E04380200005E0FFF77EFDE1
:103020002C60DAE70120404270BDC0468B040020CE
:10303000FC04002070B50E4B1B78002B13D00D4DF7
:103040002B68002B03D10220FFF74CF92860286879
:10305000002808D04388C3181C7A002C06D1FFF73B
:103060005DFD2C60E7E70120404200E0200070BDDC
:103070008B040020FC04002070B5124C2368002B48
:1030800004D0206842880188130010E00E4B1B78A2
:10309000002B03D00220FFF725F920602568002DC2
:1030A000EFD10CE0C618367A002E03D001339D1AFA
:1030B0008B42F7DB002D02D1FFF730FD25602800A1
:1030C00070BDC046FC0400208B040020324BF7B5D5
:1030D00001220C001F0001901A70002C58D02F4DB7
:1030E0002B68002B28D12E4E2E4B1B78DBB2002BE9
:1030F00018D00120FFF710F9052804D9013E2A4A0B
:10310000002E09D10BE001233B70FFF7E9FC234BB4
:1031100018600028F2D00FE01378002B06D00123AE
:103120001370002301203B70404233E03B7000F0FD
:10313000AFF801233B70D7E700221B4B29681A70B8
:1031400040234A88981A2300844200D903000800CB
:1031500008308018D2184A800022E41A934204D022
:10316000019EB65C86540132F8E7019AD3180193A8
:103170004A880E4B3F2A02D805221A70ADE740223A
:1031800000260A8001201E70FFF714F92E60A4E7C4
:1031900020003C70FEBDC046F0040020F404002076
:1031A000293200008B040020F804002000050020D4
:1031B00007B56B46D871073301211800FFF786FF6A
:1031C0000EBDFFFF012070B50E4D0F4C2B68207017
:1031D000002B0FD10D4B1B78002B02D1002020704B
:1031E0000EE0FFF799F80528F8D8FFF779FC28607A
:1031F0000028F3D02B6858884023181A0023237026
:1032000070BDC046F4040020F00400208B040020B0
:1032100010B50E4B1B78002B16D00D4C21680029E1
:1032200012D04B88002B0FD000220A4802703F2B8F
:1032300003DCC81802720133F9E7402301200B8038
:10324000FFF7B8F80023236010BDC0468B040020B0
:10325000F40400200005002010B50B4B1B78DBB2F6
:10326000002B0FD1094C21684A883F2A03DC8818BB
:1032700003720132F9E7402301200B80FFF79AF82F
:103280000023236010BDC046F0040020F404002099
:1032900070B5234C2378002B40D101332370FFF706
:1032A000EBFE002801D0FFF71AFC00F0E3F800283D
:1032B00001D000F0DBF800F049F9002801D000F05F
:1032C000D6F800F0AFF9002801D000F0D1F80023C3
:1032D0002370EFF30583002B20D1EFF3108272B639
:1032E000104D2868002803D00F4C2178002903D006
:1032F000002A13D162B611E00123237043692B60C9
:10330000002B01D0996101E008490B60002A00D12F
:1033100062B60025836845779847257070BDC04622
:1033200001050020140500201805002010050020CC
:10333000EFF3108072B643425841C0B27047002884
:1033400000D062B67047FFFF10B5FFF7F1FF0C4ADF
:103350001468002C10D063691360002B02D0002287
:103360009A6101E0074A1360FFF7E9FF002320009C
:103370006377A3689847E8E7FFF7E1FF10BDC04611
:10338000040500200805002010B5FFF7DDFF10BD83
:10339000164930B50B68002B02D18360C36009E089
:1033A00004681A68944207D20025121B8360C56026
:1033B000D8601A60086016E002681C689968121BE1
:1033C000026000290CD00C680B00A242F4D281608C
:1033D000C968A21AC160D860C16888601A6002E03A
:1033E0008160C36098600223037530BD0C05002026
:1033F00070B5174D2C68002C19D02368002B02D013
:10340000013B236013E0A268002A00D0D3600021B2
:1034100020692A60036821751B6822009847636849
:10342000002BE7D023602000FFF7B2FFE2E7FFF7B1
:103430007FFF0022074B1C681A60FFF780FF002CFB
:1034400005D0A5682000FFF7A3FF2C00F7E770BDAB
:103450000C0500201C05002010B5034A1368013339
:103460001360FFF7C5FF10BDA80300207047704729
:103470007047FFFF054B1878054BC0B21A78D3B2DE
:10348000984200D24030C01A7047C046A3050020C1
:103490002105002030B5234A13799B0611D5224B14
:1034A000D479187819000130E4B200233F2800DCF9
:1034B00003001E480078834203D01D48C454DBB289
:1034C0000B70D1781748C9B24BB2002B17DA0379C9
:1034D0005BB2002B13DA174B174C1D782378DBB245
:1034E0009D4202D16C23C37009E001333F2B00D908
:1034F00000231248C05CDBB2C0B2D07123704023FD
:1035000019420ED0117919420BD000210C4B1970C1
:103510000C4B1B688B4202D00B49097819722C2383
:10352000D37030BD00A00640A30500202105002077
:1035300062050020AC050020A40500202205002023
:1035400020050020A8050020A2050020054B1878C2
:10355000054BC0B21A78D3B2984200D24030C01A9C
:103560007047C04618060020AE05002030B5234A3B
:1035700013799B0611D5224BD479187819000130A4
:10358000E4B200233F2800DC03001E480078834299
:1035900003D01D48C454DBB20B70D1781748C9B2B0
:1035A0004BB2002B17DA03795BB2002B13DA174BFF
:1035B000174C1D782378DBB29D4202D16C23C37077
:1035C00009E00133272B00D900231248C05CDBB28D
:1035D000C0B2D0712370402319420ED01179194224
:1035E0000BD000210C4B19700C4B1B688B4202D086
:1035F0000B49097819722C23D37030BD00B00640F6
:1036000018060020AE050020D70500202006002067
:1036100019060020AF050020AD0500201C06002083
:1036200017060020054B1878054BC0B21A78D3B2A4
:10363000984200D24030C01A7047C046940600201D
:103640002906002030B52C4A13799B0623D52B4B35
:10365000D479187819000130E4B200233F2800DC47
:10366000030027480078834203D02648C454D8B2C8
:1036700008702549086800280DD024490978C9B286
:103680008B4201D35B1A01E05B1A4033272B02DD2A
:103690001F4B1B780371D1781748C9B24BB2002B6E
:1036A00017DA03795BB2002B13DA1A4B174C1D782B
:1036B0002378DBB29D4202D16C23C37009E0013351
:1036C000272B00D900231448C05CDBB2C0B2D071F4
:1036D0002370402319420ED0117919420BD00021DA
:1036E0000E4B19700E4B1B688B4202D00D490978A6
:1036F00019722C23D37030BD00C006409406002000
:1037000029060020530600202406002095060020EC
:10371000520600209C0600202A06002028060020D1
:10372000980600209306002030B585B072B670224E
:103730004121154B1A70154A1170154A3239117012
:1037400080221A701A7852B2002AFBDA114B1868DC
:1037500062B6114B984201D80A23584301AC0A22A1
:103760002100FEF76BFC00230C48E15C05000029FA
:1037700005D05A008218013351800A2BF5D101334C
:103780005B002B7005B030BD000002400700024016
:1037900006000240080002407F9698005AFFFF1F73
:1037A00002B4714649084900095649008E4402BCDA
:1037B0007047C04602B4714649084900095C490097
:1037C0008E4402BC7047C04603B4714649084000AD
:1037D0004900095A49008E4403BC7047002243083F
:1037E0008B4274D303098B425FD3030A8B4244D3C9
:1037F000030B8B4228D3030C8B420DD3FF2209020B
:1038000012BA030C8B4202D31212090265D0030BC9
:103810008B4219D300E0090AC30B8B4201D3CB03BF
:10382000C01A5241830B8B4201D38B03C01A524101
:10383000430B8B4201D34B03C01A5241030B8B4203
:1038400001D30B03C01A5241C30A8B4201D3CB02EE
:10385000C01A5241830A8B4201D38B02C01A5241D3
:10386000430A8B4201D34B02C01A5241030A8B42D6
:1038700001D30B02C01A5241CDD2C3098B4201D3EE
:10388000CB01C01A524183098B4201D38B01C01A6C
:10389000524143098B4201D34B01C01A52410309E3
:1038A0008B4201D30B01C01A5241C3088B4201D392
:1038B000CB00C01A524183088B4201D38B00C01A3F
:1038C000524143088B4201D34B00C01A5241411A66
:1038D00000D20146524110467047FFE701B5002073
:1038E00000F0F0F802BDC0460029F7D076E7704737
:1038F00003460B437FD4002243088B4274D3030951
:103900008B425FD3030A8B4244D3030B8B4228D3F1
:10391000030C8B420DD3FF22090212BA030C8B4217
:1039200002D31212090265D0030B8B4219D300E0B7
:10393000090AC30B8B4201D3CB03C01A5241830B3C
:103940008B4201D38B03C01A5241430B8B4201D3EC
:103950004B03C01A5241030B8B4201D30B03C01A15
:103960005241C30A8B4201D3CB02C01A5241830A8F
:103970008B4201D38B02C01A5241430A8B4201D3BE
:103980004B02C01A5241030A8B4201D30B02C01AE8
:103990005241CDD2C3098B4201D3CB01C01A52414F
:1039A00083098B4201D38B01C01A524143098B42D8
:1039B00001D34B01C01A524103098B4201D30B01C1
:1039C000C01A5241C3088B4201D3CB00C01A5241E6
:1039D00083088B4201D38B00C01A524143088B42AB
:1039E00001D34B00C01A5241411A00D20146524144
:1039F000104670475DE0CA0F00D04942031000D363
:103A00004042534000229C4603098B422DD3030AB7
:103A10008B4212D3FC22890112BA030A8B420CD3C7
:103A2000890192118B4208D3890192118B4204D3F0
:103A300089013AD0921100E08909C3098B4201D370
:103A4000CB01C01A524183098B4201D38B01C01AAA
:103A5000524143098B4201D34B01C01A5241030921
:103A60008B4201D30B01C01A5241C3088B4201D3D0
:103A7000CB00C01A524183088B4201D38B00C01A7D
:103A80005241D9D243088B4201D34B00C01A524154
:103A9000411A00D20146634652415B10104601D3E1
:103AA0004042002B00D54942704763465B1000D36B
:103AB000404201B5002000F005F802BD0029F8D011
:103AC00016E770477047C0461C2101231B0498422B
:103AD00001D3000C10391B0A984201D3000A08399F
:103AE0001B09984201D30009043902A2105C401856
:103AF0007047C046040302020101010100000000FA
:103B000000000000014B18687047C046D0FFFF1F3F
:103B10000E4B70B500251E000D4CE41AA410A542F2
:103B200004D0AB00F35898470135F8E701F00EFEDA
:103B3000084B00251E00084CE41AA410A54204D02E
:103B4000AB00F35898470135F8E770BD58570000AF
:103B500058570000585700005C57000010B504008B
:103B600000F012F8082304196078184010BDFFFF18
:103B7000034B1B68186A002800D102487047C046F2
:103B8000D0FFFF1FD4FFFF1F034B10B51868FFF7CE
:103B9000EFFFEC30006810BDD0FFFF1F82B000299E
:103BA00000D101A9101E09D0002B05D013780B609D
:103BB0001078431E984101E00220404202B0704755
:103BC000002310B59A4203D0CC5CC4540133F9E70A
:103BD00010BD10B5884202D98B18984201D300233A
:103BE00005E09B1A013A08D3995C8154FAE79342A5
:103BF00003D0CC5CC4540133F9E710BD0300821834
:103C0000934202D019700133FAE7704770B505008E
:103C1000002944D00C1F2368002B00DAE418280088
:103C200000F0F7F91E4A13681100002B02D16360FF
:103C3000146031E0A3420DD92268A018834203D159
:103C400018685B688218226063600C6024E0A242FE
:103C500003D813005A68002AF9D11E689819A042A7
:103C60000BD12168711858181960824214D110685C
:103C70005268411819605A600EE0A04202D90C2324
:103C80002B6009E021686018824203D110685268F5
:103C90004118216062605C60280000F0BBF970BDD3
:103CA000A4060020032370B5CD1C9D4308350600F3
:103CB0000C2D01D20C2501E0002D01DBA94202D917
:103CC0000C23336048E0300000F0A3F9234B1C685C
:103CD0001A002100002913D00B685B1B0DD40B2B9D
:103CE00002D90B60CC181EE08C4202D163681360CD
:103CF0001AE04B6863600C0016E00C004968E9E7C5
:103D0000174C2368002B03D1300000F02BF8206003
:103D10002900300000F026F8431C18D00323C41CEF
:103D20009C43A0420DD12560300000F073F92000C3
:103D300007220B30231D9043C31A0ED05A42E25083
:103D40000BE0211A300000F00DF8431CEBD10C23DE
:103D50003000336000F05EF9002070BDA406002042
:103D6000A0060020002370B5064C05000800236063
:103D7000FEF73AF9431C03D12368002B00D02B60D7
:103D800070BDC046F4060020031C0A7801311A7089
:103D90000133002AF9D170470023C25C0133002AA5
:103DA000FBD1581E7047FFFFF0B5184C0E00A5441C
:103DB000039380239B00040017000593002804D080
:103DC0008369002B01D100F091F8039B06AD0093AD
:103DD00005AA3B002900200000F080FC071E0ED041
:103DE0000200059B3100200000F02AF80590AF4248
:103DF00003D039002000FFF709FF059801E00120FA
:103E0000404287239B009D44F0BDC046E4FDFFFF78
:103E100010B513000A00010002480068FFF7C4FF54
:103E200010BDC046D0FFFF1F0B1E07D0FF2A03D9CD
:103E30008A2303608B3B01E001230A70180070475E
:103E400070B50500080011000022064C22601A001F
:103E5000FDF788FF431C03D12368002B00D02B60A3
:103E600070BDC046F406002010B5024900F0B0F85D
:103E700010BDC04671480000002310B50400036067
:103E80004360836081814366C281036143618361D2
:103E9000190008225C30FFF7B1FE054B2462636213
:103EA000044BA362044BE362044B236310BDC04682
:103EB000454600006D460000A5460000D1460000C2
:103EC00070B568254B1E5D430E0029007431FFF765
:103ED000E9FE041E08D000212A00016046600C3073
:103EE000A0606832FFF78AFE200070BD836913B5B9
:103EF0000400002B28D18364C3640365134B144A68
:103F00001B6882620193984201D1012383612000E2
:103F100000F020F86060200000F01CF8A060200095
:103F200000F018F80022E06004216068FFF7A4FFA9
:103F300001220921A068FFF79FFF02221221E068F9
:103F4000FFF79AFF0123A36113BDC046A8550000E7
:103F5000693E0000F8B51D4B06001D68AB69002BDB
:103F600002D12800FFF7C2FF4835AC686B68013BFF
:103F700005D40C22A75E002F10D06834F7E72B6819
:103F8000002B01D02D68F0E704213000FFF798FFE7
:103F900028600028F6D10C23336016E001232000AE
:103FA0005B42E3810233A38167662760A760676095
:103FB00027616761A7615C3008223900FFF71EFEA8
:103FC00020006763A763A764E764F8BDA8550000F5
:103FD000F7B504000700002601914834002C16D0E4
:103FE0006368A5680093009B013B00930DD4AB89E7
:103FF000012B08D90E22AB5E013304D02900380012
:10400000019B984706436835EDE72468E6E73000F2
:10401000FEBD70477047F8B506000C00150000297A
:1040200004D11100FFF73EFE040018E0002A03D17E
:10403000FFF7ECFD2C0012E000F065FC85420ED984
:1040400029003000FFF72EFE071E07D021002A00AE
:10405000FFF7B6FD21003000FFF7D8FD3C0020003F
:10406000F8BDFFFFF0B58E6885B007000C00039225
:1040700001939E4243D890238A89DB001A423ED0A6
:1040800003250969236801985B1A029363695D43FC
:10409000EB0F5D19029B6D1001331B18AB4200D969
:1040A0001D00530510D529003800FFF7FBFD061E43
:1040B00014D0029A2169FFF783FDA289194B13409E
:1040C00080221343A38112E02A003800FFF7A3FFE8
:1040D000061E0CD121693800FFF798FD0C23402201
:1040E00001203B60A38940421343A38117E0029B58
:1040F0002661F61826606561019EED1AA560019B98
:10410000B34200D21E00320003992068FFF761FD20
:104110000020A3689B1BA36023689E19266005B03E
:10412000F0BDC0467FFBFFFFF0B59FB00290059346
:104130008B890F0016001B0610D50B69002B0DD1C3
:104140004021FFF7AFFD38603861002804D10C230F
:10415000029A01381360D8E040237B61002306AD4A
:104160006B6120336B761033AB7634002378002BF1
:1041700003D1A31B049312D003E0252BF9D0013403
:10418000F4E7A31B320039000298FFF76BFF431CD2
:1041900000D1B4E06A69049B944663446B61237860
:1041A000002B00D1ABE00122002352426A6002A939
:1041B0005432521801342B60EB60AB601370AB6566
:1041C000534E21780522300000F092FB002807D0E2
:1041D0000123801B83402A68013413432B60EFE7DF
:1041E0002B68DA0604D55322202102A81218117078
:1041F0001A0704D553222B2102A812181170227815
:104200002A2A03D0099B00200A210EE0059A111DDD
:1042100012680591002A01DB099204E05242EA602B
:10422000022213432B6001340BE02278303A092A32
:1042300004D84B4301349B180120F6E7002800D036
:10424000099323782E2B1ED163782A2B0AD1059B44
:1042500002341A1D1B680592002B01DA01235B4210
:10426000079310E000230A201A0001346B602178C4
:104270003039092904D84243013452180123F6E7A2
:10428000002B00D00792234E21780322300000F04B
:104290002FFB002806D04023801B83402A6801346E
:1042A00013432B60217806221B48661C297600F0F8
:1042B0001FFB002812D0194B002B06D10722059BAB
:1042C000073393430833059314E005AB00933A009A
:1042D000134B2900029800E000BF07E005AB0093F4
:1042E0003A000F4B2900029800F08AF80390039BD4
:1042F000013304D06B69039A9B186B6135E7BB8966
:104300000B985B0601D5012040421FB0F0BDC046AE
:10431000185700001E570000225700000000000040
:1043200065400000F7B5170001938A680B6900909B
:104330000C00934200DA130022003B6043321278F3
:10434000002A01D001333B6023689B0602D53B68FD
:1043500002333B60062523681D401ED023004333F3
:104360001B785A1E9341226892061CD53020E11812
:104370004331087021005A1C45310978A218433294
:10438000023311700FE022000123193201990098C5
:10439000089EB047431C0ED00135E3683A689B1A6B
:1043A0009D42F0DBDAE72200019943320098089D34
:1043B000A847431C02D10120404220E00623206888
:1043C000E1683A6803400025042B03D18D1AEB43C2
:1043D000DB171D40A3682269934201DD9B1AED188B
:1043E0000027BD420AD0220001231A320199009809
:1043F000089EB047431CDED00137F2E70020FEBD27
:10440000F0B58BB006920A004332079305900492F0
:104410000A7E0C00109B6E2A00D1ABE011D8632AF3
:1044200022D009D8002A00D1B5E0582A00D0C5E032
:1044300045310A70814A4FE0642A1DD0692A1BD099
:10444000BCE0732A00D1AAE009D86F2A29D0702ACB
:1044500000D0B3E0202209680A43226037E0752AC1
:104460001FD0782A33D0A9E00E001A684236111DF9
:10447000196013683370A4E021681A68080606D42E
:10448000490604D5111D19600023D55E02E0111DF7
:1044900019601568002D3BDA2D23049A6D421370C4
:1044A00036E021681A68080606D4490604D515685E
:1044B000111D1960ADB202E0111D196015685F4B46
:1044C000227E039308276F2A1DD00A271BE02200B3
:1044D0007821453211705A4A19680392081D2268E2
:1044E00018600D68100602D4500600D5ADB2D3078F
:1044F00002D520231A4322601027002D03D1202348
:1045000022689A4322602300002243331A7002E09B
:104510000A274A4B03936368A360002B09DB04223C
:10452000216891432160002D05D1049E002B11D0FC
:104530007BE0002D79D0049E28003900FFF7D4F9E4
:10454000039B013E5B5C280033703900FFF746F99E
:10455000051EF1D1082F09D12368DB0706D5636852
:104560002269934202DC3023013E3370049B9B1B83
:1045700023612BE009681A68080607D4490605D5A7
:10458000111D19601368A28A1A8004E0111D1960B8
:10459000136862691A600023049E236116E01A689A
:1045A000111D1960166800216268300000F0A0F942
:1045B000002801D0801B6060636803E0260042365B
:1045C0003270012323610023049A1370079B09AA08
:1045D00000932100069B0598FFF7A4FE431C02D11F
:1045E0000120404227E02369320006990598079D83
:1045F000A847431CF4D0236800259B070FD4099BD0
:10460000E068984217DA180015E0220001231932F9
:1046100006990598079EB047431CE1D00135E36831
:10462000099A9B1A9D42F0DBE9E72600039B42367C
:104630001B7833708EE70BB0F0BDC04629570000E1
:104640003A57000070B50C000E25495F00F066F97E
:10465000002803DB636D1B18636503E0A289024B2E
:104660001340A38170BDC046FFEFFFFFF8B51F00E8
:104670008B8905000C001600DB0505D50E23C95EED
:104680000022022300F020F9A289054B28001340E4
:10469000A38132000E23E15E3B00FFF7D1FBF8BDA2
:1046A000FFEFFFFF70B50C000E25495F00F00CF91D
:1046B000A389421C03D1054A1340A38104E0802250
:1046C00052011343A381606570BDC046FFEFFFFF39
:1046D00010B50E23C95E00F033F810BD70B514009C
:1046E0009CB01A002368002906D0002B04D0C125F5
:1046F00002AEED00B58105E0A22302A99B008B81EB
:104700000023190002910691002B03DA8B2303602A
:10471000002311E004930793012302A95B42CB819C
:10472000209BFFF701FD00221300904204DB029B57
:1047300020601A700193069B18001CB070BDFFFF2B
:10474000002370B5064C050008002360FDF768FCE7
:10475000431C03D12368002B00D02B6070BDC046E2
:10476000F4060020F7B58A8905000C0013075AD417
:104770004B68002B02DC0B6C002B19DDE76A002F65
:1047800016D000232E682B6080235B011A4001D0D5
:10479000606D14E00123216A2800B847431C0ED144
:1047A0002B68002B0BD01D2B01D0162B02D12E60B5
:1047B00000205AE04022A3891343A38155E0A38936
:1047C0005B0706D56368C01A636B002B01D0236CAE
:1047D000C01A00230200216A2800E76AB847A389AB
:1047E000421C06D129681D293AD8204ACA40D2075E
:1047F00036D50022626022692260DB0405D5431CA5
:1048000002D12B68002B00D16065616B2E600029FE
:10481000CED023004433994202D02800FFF7F6F9A6
:104820000020606321E00F69002FC1D00B680F608A
:10483000DB1B01930023920700D14B69A36003E0C7
:10484000019B3F181B1A0193019B002BB0DD019BBC
:104850003A00216A2800A66AB0470028F0DCA38944
:10486000402201201343A3814042FEBD01004020AD
:104870000B6970B505000C00002B01D100201CE075
:10488000002804D08369002B01D1FFF72FFB0B4BCD
:104890009C4201D16C6808E0094B9C4201D1AC6894
:1048A00003E0084B9C4200D1EC680C22A35E002B75
:1048B000E4D021002800FFF755FF70BDB856000076
:1048C000D8560000F856000070B505000800110029
:1048D0000022064C22601A00FDF7A5FB431C03D101
:1048E0002368002B00D02B6070BDC046F40600206A
:1048F000C9B28218904204D003788B4202D00130B2
:10490000F8E7002070470B1F1A68101F002A04DA0E
:10491000891804390B68D0180438704770B5050041
:10492000080011000022064C22601A00FDF776FBF9
:10493000431C03D12368002B00D02B6070BDC04600
:10494000F4060020454E4C5043FFFFFF10000000CE
:10495000150000001A0000001F0000000E000000FB
:10496000150000001A0000001E0000000C000000EE
:104970001800000024000000300000002D3E2043FD
:104980006F6E74726F6C202564206F6E20436861B7
:104990006E6E656C2025642076616C75653A202505
:1049A00064200A005375737461696E206F6E206411
:1049B000657465637465640A005375737461696E28
:1049C000206F66662064657465637465640A003CE4
:1049D0002D20436F6E74726F6C202564206F6E20E3
:1049E0004368616E6E656C20312076616C75653A46
:1049F000202564200A004D5045202D204368616E1B
:104A00006E656C20256420506564616C20284343EA
:104A100020373429206973202564200A00457272EA
:104A20006F723A20556E6B6E6F776E2061646A7597
:104A30007374206D6F64652063616C6C65642066BF
:104A40006F72204D6F646520272563270A00436835
:104A5000616E6E656C202564206A6F795F62757483
:104A6000746F6E2070726573732069733A202564C9
:104A7000202F20256420627574746F6E5F70696EDC
:104A8000202564204A6F79467265657A653A20254B
:104A9000640A006A6F79537469636B55703A2055E4
:104AA0006E6578706563746564206D70655F6D6FA9
:104AB00064652027256327200A004368616E6E65C0
:104AC0006C202564206A6F795F7665727469636112
:104AD0006C202172656C61746976652120256420E3
:104AE00075702028434320373429206973202564BA
:104AF000202F202564200A004368616E6E656C20BB
:104B00002564206A6F795F766572746963616C20D1
:104B10002564207570202843432037342920697389
:104B2000202564202F202564200A004368616E6ED2
:104B3000656C202564206A6F795F7665727469639D
:104B4000616C202564207570202843432031292082
:104B50006973202564202F202564200A00436861A2
:104B60006E6E656C202564206A6F795F766572745D
:104B70006963616C20646F776E2072657365742061
:104B80000A004368616E6E656C202564206A6F7947
:104B90005F766572746963616C20256420646F7749
:104BA0006E202172656C61746976652043433734E9
:104BB000206973202564202F202564200A00436883
:104BC000616E6E656C202564206A6F795F76657210
:104BD000746963616C20256420646F776E20416680
:104BE000746572546F756368206973202564202F83
:104BF000202564200A004368616E6E656C20256480
:104C0000206A6F795F766572746963616C20757074
:104C1000207265736574200A004368616E6E656C6E
:104C2000202564206A6F795F686F72697A6F6E748D
:104C3000616C2025642070697463682072696768FC
:104C400074206973202564202F202564200A0043E6
:104C500068616E6E656C202564206A6F795F686F8D
:104C600072697A6F6E74616C2025642020697320EC
:104C70002564202F202564200A004368616E6E653C
:104C80006C202564206A6F795F686F72697A6F6E35
:104C900074616C202564204D5045207269676874EA
:104CA0002028373329206973202564202F2025648C
:104CB000200A004368616E6E656C202564206A6F6F
:104CC000795F686F72697A6F6E74616C20256420F9
:104CD0006C656674206973202564202F202564206C
:104CE0000A004368616E6E656C202564206A6F79E6
:104CF0005F686F72697A6F6E74616C2025642062E0
:104D00007265617468206C6566742069732025641F
:104D1000202F202564200A004368616E6E656C2098
:104D20002564206A6F795F686F72697A6F6E74614B
:104D30006C202564204D5045206C65667420284306
:104D400043203129206973202564202F20256420E9
:104D50000A00616C6C206E6F746573206F6666204C
:104D600073656E7421200A00427574746F6E3A2068
:104D700025782073656C656374656420666F7220A6
:104D80006E6578745F6D70655F6D6F6465200A0095
:104D9000536869667420627574746F6E2037207072
:104DA00072657373656420616C6F6E65202D206978
:104DB000676E6F72650A00427574746F6E3A2025D3
:104DC000782073656C656374656420666F7220700B
:104DD000726576696F75735F6D70655F6D6F646521
:104DE000200A00427574746F6E20372072656C65FE
:104DF00061736564200A00556E7265636F676E6942
:104E00007A656420627574746F6E3A20257820701C
:104E1000726573736564200A00496C6C6967616C24
:104E200020496E64657820256420746F2073657452
:104E30005F706F6C795F6E6F74650A006765745F91
:104E40006B6579735F696428293A20256420666F51
:104E500072206D5F706F6C795F6163746976655BFA
:104E600025645D3A202578200A002D3E204E6F747F
:104E700065206F6E2063683A202564206E743A20A6
:104E8000256420766C3A202564200A002121212007
:104E90004368616E6E656C202564206C6174636884
:104EA000656420746F20666F6F74706564616C2038
:104EB000766961206E6F74656F6E206F7665722003
:104EC0004368616E6E656C203131200A003C2D20F4
:104ED0004E6F7465206F6E202858292069643A202F
:104EE00025642063683A202564206E743A20256486
:104EF00020766C3A202564200A003C2D204E6F74E9
:104F000065206F6E2028422920706F6C79206964BB
:104F10003A2025642063683A202564206E743A2084
:104F2000256420766C3A202564200A003C2D204E12
:104F30006F7465206F6E20284129206D6F6E6F2081
:104F400069643A2025642063683A202564206E74E1
:104F50003A20256420766C3A202564200A00756E7C
:104F6000736574206964202564206D5F706F6C79AF
:104F70005F6163746976655B25645D3A20257820FE
:104F80000A002D3E204E6F7465206F6666206368B0
:104F90003A202564206E743A20256420766C3A20ED
:104FA0002564200A003C2D204E6F7465206F6666D4
:104FB0002069643A2025642063683A202564206EC5
:104FC000743A20256420766C3A202564200A003C3F
:104FD0002D204E6F7465206F66662069642028500E
:104FE000293A2025642063683A202564206E743AAB
:104FF00020256420766C3A202564200A003C2D2070
:105000004E6F7465206F666620696420284D293ACA
:105010002025642063683A202564206E743A202598
:105020006420766C3A202564200A003C2D204E6FC7
:105030007465206F6E206E6F772120696420284D83
:10504000293A2025642063683A202564206E743A4A
:1050500020256420766C3A202564200A003C2D200F
:105060004E6F7465206F6666206964202842293A75
:105070002025642063683A202564206E743A202538
:105080006420766C3A202564200A00454545456534
:105090006D203200202020202B2B2B2B00202020C5
:1050A000202D2D2D2D002D2D2D2D20202020002BCD
:1050B0002D2D2D20202020002D2B2D2D2D202020AA
:1050C000002D2D2B2D20202020002D2D2D2B2020BC
:1050D000202000556E6578706563746564206C618E
:1050E0007463685F6368616E6E656C202564200A76
:1050F0000065646300FFFFFF000000000000000087
:10510000C91B0000611A0000791A0000A51A0000EE
:10511000B31A0000D71A0000F71A00000D1C000097
:10512000E1190000411B0000631B00009B1B0000F5
:105130006D1C0000CD190000FB1900000086227EC6
:105140006D00000230066300044080523F065B4F52
:10515000666D7D277F6F0000004800535F777F39C1
:105160003F79713D76061F693815373F7367316D9A
:10517000783E2A1D766E5B39640F0008205F7C58EC
:105180005E7B316F74040E753055545C7367506DDF
:10519000781C2A1D766E474606700131323334354D
:1051A0003637380054657874202D20446973706C4C
:1051B0006179206F6E652043686172616374657206
:1051C000206D6F64696669636174696F6E2027255D
:1051D00073272C20646F74735F6269747320257861
:1051E000200A00496E646578202564206F7574205C
:1051F0006F6620626F756E647320746F20757064C3
:10520000617465206D6F64756C652D7465787420AC
:1052100077697468696E20737562737469747574E4
:10522000696F6E210A00496E646578202564206FDD
:105230007574206F6620626F756E647320746F20C2
:10524000757064617465206D6F64756C652D74652F
:1052500078742120537562737469747574696F6E04
:105260002069676E6F7265640A0054657874202D3A
:1052700020446973706C617920272573272C206482
:105280006F74735F62697473202578200A002D2D76
:105290002D2D2D2D2D2D00446F7473202D2044694C
:1052A00073706C617920272573272C20646F7473C9
:1052B0005F62697473202578200A00737570706FBF
:1052C0007365646C79207365766572616C206275B4
:1052D00074746F6E7320707265737365642061748B
:1052E000206F6E63653A2025342E3478200A0072D0
:1052F000656D656D6265722D73686966742D686190
:105300007070656E65643A20256420736869667400
:105310005F68617070656E643A2025640A00FFFF63
:105320000000000000000000C91B0000611A00001E
:10533000791A0000A51A0000B31A0000D71A00005D
:10534000F71A00000D1C0000E1190000411B0000CD
:10535000631B00009B1B00006D1C0000CD190000AA
:10536000FB1900000000000000000000C91B000045
:10537000611A0000791A0000A51A0000B31A000093
:10538000D71A0000F71A00000D1C00002D200000A5
:10539000411B0000631B00009B1B00006D1C0000F4
:1053A0007950505C50000000050E08090D0C0607EE
:1053B0000F0B004417FF050E08090D0C06070F0B15
:1053C000004417FFFFFFFFFFFFFFFFFFFFFF1A1B58
:1053D000420000F840A0044001000000420000F834
:1053E00044A0044002000000C00000F800C00440D7
:1053F00001000000000000F80490044002000000DA
:10540000000000F80890044004000000C00000F80C
:105410001CC0044080000000C00000F810C0044020
:1054200010000000C00000F808C0044004000000A4
:10543000C00000F80CC0044008000000800000F824
:105440000CB0044008000000800000F810B00440D8
:1054500010000000800000F818B004404000000078
:10546000800000F81CB0044080000000800000F8BC
:1054700014B0044020000000C00000F804C0044044
:1054800002000000800000F800B0044001000000AD
:10549000400000F800A0044001000000400000F8B7
:1054A00004A0044002000000400000F80CA00440EA
:1054B00008000000400000F808A0044004000000BC
:1054C000C00000F814C0044020000000C00000F834
:1054D00018C0044040000000800000F804B0044000
:1054E00002000000800000F808B004400400000042
:1054F000020100F850D0044010000000020100F842
:1055000054D0044020000000030100F878D004408B
:10551000400000000000000000000000D52A00004C
:10552000C92A0000C12A0000B92A0000B12A0000DF
:10553000A92A0000A12A0000151915190001000070
:1055400080FEFF1F1200000000020000AAFEFF1FE5
:1055500073000000002201001DFFFF1F210000005A
:105560000021010006FFFF1F0900000000030000EA
:1055700056FFFF1F000000000103090492FEFF1FF9
:1055800000000000020309043EFFFF1F00000000AE
:10559000030309045AFFFF1F000000000000000081
:1055A000000000000000000070FFFF1F4300504F8C
:1055B000534958002E0000202020202020202020A9
:1055C00028282828282020202020202020202020B3
:1055D00020202020202020881010101010101010E3
:1055E0001010101010101004040404040404040427
:1055F00004101010101010104141414141410101AF
:10560000010101010101010101010101010101018A
:105610000101101010101010424242424242020298
:10562000020202020202020202020202020202025A
:105630000202101010102000000000000000000006
:10564000000000000000000000000000000000005A
:10565000000000000000000000000000000000004A
:10566000000000000000000000000000000000003A
:10567000000000000000000000000000000000002A
:10568000000000000000000000000000000000001A
:10569000000000000000000000000000000000000A
:1056A00000000000000000000000000000000000FA
:1056B00000000000000000FF0000000000000000EB
:1056C00000000000000000000000000000000000DA
:1056D00000000000000000000000000000000000CA
:1056E00000000000000000000000000000000000BA
:1056F00000000000000000000000000000000000AA
:105700000000000000000000000000000000000099
:105710000000000000000000232D302B2000686CEA
:105720004C006566674546470030313233343536C4
:1057300037383941424344454600303132333435FD
:105740003637383961626364656600FFF8B5C04674
:0C575000F8BC08BC9E46704739040000FD
:04575C00F8B5C04696
:10576000020000000A00000001000000AC0100205F
:10577000F40100203C020020840200201000000000
:10578000FFFFFFFF0A040000F80600201C55000080
:1057900000000000E803000000000000FFFFFFFF22
:1057A0001201100100000040C016850473020102BE
:1057B000030118035400650065006E007300790052
:1057C0006400750069006E006F0009027300020139
:1057D00000C0320904000002010300000724010098
:1057E000012500062402010100062402020200092C
:1057F0002403010301020100092403020401010141
:10580000000905040240000000000525010101090E
:105810000583024000000000052501010309040181
:1058200000020300000009211101000122210007EC
:105830000581034000010705020320000206C9FF9D
:105840000904A15C7508150026FF009540097581C3
:105850000295200976910295040976B102C01803D9
:105860005400650065006E007300790020004D0053
:10587000490044004900040309040C03000000002F
:105880000000000000000000000000000000000018
:1058900000000000B8560000D8560000F85600007E
:1058A00000000000000000000000000000000000F8
:1058B00000000000000000000000000000000000E8
:1058C00000000000000000000000000000000000D8
:1058D00000000000000000000000000000000000C8
:1058E00000000000000000000000000000000000B8
:1058F00070FFFF1F430000000000000000000000D8
:105900000000000000000000000000000000000097
:105910000000000043000000000000000000000044
:105920000000000000000000000000000000000077
:105930000000000043000000000000000000000024
:105940000000000000000000000000000000000057
:105950000000000043000000000000000000000004
:105960000000000000000000000000000000000037
:1059700000000000430000000000000000000000E4
:105980000000000000000000000000000000000017
:1059900000000000430000000000000000000000C4
:1059A00000000000000000000000000000000000F7
:1059B00000000000430000000000000000000000A4
:1059C00000000000000000000000000000000000D7
:1059D00000000000293E00009D3B00000000000088
:1059E000B6550000B4550000674D0000674D00003B
:1059F000674D0000674D0000674D0000674D0000D7
:105A0000674D0000674D0000674D0000FFFFFFFF7E
:105A1000FFFFFFFFFFFFFFFFFFFF000001004153FB
:105A200043494900000000000000000000000000A1
:105A300000000000000000000000000000004153D2
:105A40004349490000000000000000000000000081
:105A50000000000000000000000000000000000046
:00000001FF
